{
  "contractName": "SupplyChain",
  "abi": [
    {
      "inputs": [],
      "payable": false,
      "stateMutability": "nonpayable",
      "type": "constructor"
    },
    {
      "constant": true,
      "inputs": [
        {
          "internalType": "uint256",
          "name": "",
          "type": "uint256"
        }
      ],
      "name": "DIS",
      "outputs": [
        {
          "internalType": "address",
          "name": "addr",
          "type": "address"
        },
        {
          "internalType": "uint256",
          "name": "id",
          "type": "uint256"
        },
        {
          "internalType": "string",
          "name": "name",
          "type": "string"
        },
        {
          "internalType": "string",
          "name": "place",
          "type": "string"
        }
      ],
      "payable": false,
      "stateMutability": "view",
      "type": "function"
    },
    {
      "constant": true,
      "inputs": [
        {
          "internalType": "uint256",
          "name": "",
          "type": "uint256"
        }
      ],
      "name": "Inventario",
      "outputs": [
        {
          "internalType": "uint256",
          "name": "id",
          "type": "uint256"
        },
        {
          "internalType": "string",
          "name": "name",
          "type": "string"
        },
        {
          "internalType": "string",
          "name": "description",
          "type": "string"
        },
        {
          "internalType": "uint256",
          "name": "PRODid",
          "type": "uint256"
        },
        {
          "internalType": "uint256",
          "name": "PROCid",
          "type": "uint256"
        },
        {
          "internalType": "uint256",
          "name": "DISid",
          "type": "uint256"
        },
        {
          "internalType": "uint256",
          "name": "MAYid",
          "type": "uint256"
        },
        {
          "internalType": "enum SupplyChain.STAGE",
          "name": "stage",
          "type": "uint8"
        }
      ],
      "payable": false,
      "stateMutability": "view",
      "type": "function"
    },
    {
      "constant": true,
      "inputs": [
        {
          "internalType": "uint256",
          "name": "",
          "type": "uint256"
        }
      ],
      "name": "MAY",
      "outputs": [
        {
          "internalType": "address",
          "name": "addr",
          "type": "address"
        },
        {
          "internalType": "uint256",
          "name": "id",
          "type": "uint256"
        },
        {
          "internalType": "string",
          "name": "name",
          "type": "string"
        },
        {
          "internalType": "string",
          "name": "place",
          "type": "string"
        }
      ],
      "payable": false,
      "stateMutability": "view",
      "type": "function"
    },
    {
      "constant": true,
      "inputs": [],
      "name": "Owner",
      "outputs": [
        {
          "internalType": "address",
          "name": "",
          "type": "address"
        }
      ],
      "payable": false,
      "stateMutability": "view",
      "type": "function"
    },
    {
      "constant": true,
      "inputs": [
        {
          "internalType": "uint256",
          "name": "",
          "type": "uint256"
        }
      ],
      "name": "PROC",
      "outputs": [
        {
          "internalType": "address",
          "name": "addr",
          "type": "address"
        },
        {
          "internalType": "uint256",
          "name": "id",
          "type": "uint256"
        },
        {
          "internalType": "string",
          "name": "name",
          "type": "string"
        },
        {
          "internalType": "string",
          "name": "place",
          "type": "string"
        }
      ],
      "payable": false,
      "stateMutability": "view",
      "type": "function"
    },
    {
      "constant": true,
      "inputs": [
        {
          "internalType": "uint256",
          "name": "",
          "type": "uint256"
        }
      ],
      "name": "PROD",
      "outputs": [
        {
          "internalType": "address",
          "name": "addr",
          "type": "address"
        },
        {
          "internalType": "uint256",
          "name": "id",
          "type": "uint256"
        },
        {
          "internalType": "string",
          "name": "name",
          "type": "string"
        },
        {
          "internalType": "string",
          "name": "place",
          "type": "string"
        }
      ],
      "payable": false,
      "stateMutability": "view",
      "type": "function"
    },
    {
      "constant": true,
      "inputs": [],
      "name": "disCtr",
      "outputs": [
        {
          "internalType": "uint256",
          "name": "",
          "type": "uint256"
        }
      ],
      "payable": false,
      "stateMutability": "view",
      "type": "function"
    },
    {
      "constant": true,
      "inputs": [],
      "name": "mayCtr",
      "outputs": [
        {
          "internalType": "uint256",
          "name": "",
          "type": "uint256"
        }
      ],
      "payable": false,
      "stateMutability": "view",
      "type": "function"
    },
    {
      "constant": true,
      "inputs": [],
      "name": "pedidosCtr",
      "outputs": [
        {
          "internalType": "uint256",
          "name": "",
          "type": "uint256"
        }
      ],
      "payable": false,
      "stateMutability": "view",
      "type": "function"
    },
    {
      "constant": true,
      "inputs": [],
      "name": "procCtr",
      "outputs": [
        {
          "internalType": "uint256",
          "name": "",
          "type": "uint256"
        }
      ],
      "payable": false,
      "stateMutability": "view",
      "type": "function"
    },
    {
      "constant": true,
      "inputs": [],
      "name": "prodCtr",
      "outputs": [
        {
          "internalType": "uint256",
          "name": "",
          "type": "uint256"
        }
      ],
      "payable": false,
      "stateMutability": "view",
      "type": "function"
    },
    {
      "constant": true,
      "inputs": [
        {
          "internalType": "uint256",
          "name": "_orderID",
          "type": "uint256"
        }
      ],
      "name": "mostrarEtapa",
      "outputs": [
        {
          "internalType": "string",
          "name": "",
          "type": "string"
        }
      ],
      "payable": false,
      "stateMutability": "view",
      "type": "function"
    },
    {
      "constant": false,
      "inputs": [
        {
          "internalType": "address",
          "name": "_address",
          "type": "address"
        },
        {
          "internalType": "string",
          "name": "_name",
          "type": "string"
        },
        {
          "internalType": "string",
          "name": "_place",
          "type": "string"
        }
      ],
      "name": "addPROD",
      "outputs": [],
      "payable": false,
      "stateMutability": "nonpayable",
      "type": "function"
    },
    {
      "constant": false,
      "inputs": [
        {
          "internalType": "address",
          "name": "_address",
          "type": "address"
        },
        {
          "internalType": "string",
          "name": "_name",
          "type": "string"
        },
        {
          "internalType": "string",
          "name": "_place",
          "type": "string"
        }
      ],
      "name": "addProcesador",
      "outputs": [],
      "payable": false,
      "stateMutability": "nonpayable",
      "type": "function"
    },
    {
      "constant": false,
      "inputs": [
        {
          "internalType": "address",
          "name": "_address",
          "type": "address"
        },
        {
          "internalType": "string",
          "name": "_name",
          "type": "string"
        },
        {
          "internalType": "string",
          "name": "_place",
          "type": "string"
        }
      ],
      "name": "addDistribuidor",
      "outputs": [],
      "payable": false,
      "stateMutability": "nonpayable",
      "type": "function"
    },
    {
      "constant": false,
      "inputs": [
        {
          "internalType": "address",
          "name": "_address",
          "type": "address"
        },
        {
          "internalType": "string",
          "name": "_name",
          "type": "string"
        },
        {
          "internalType": "string",
          "name": "_place",
          "type": "string"
        }
      ],
      "name": "addMayorista",
      "outputs": [],
      "payable": false,
      "stateMutability": "nonpayable",
      "type": "function"
    },
    {
      "constant": false,
      "inputs": [
        {
          "internalType": "uint256",
          "name": "_orderID",
          "type": "uint256"
        }
      ],
      "name": "PRODsupply",
      "outputs": [],
      "payable": false,
      "stateMutability": "nonpayable",
      "type": "function"
    },
    {
      "constant": false,
      "inputs": [
        {
          "internalType": "uint256",
          "name": "_orderID",
          "type": "uint256"
        }
      ],
      "name": "Procesando",
      "outputs": [],
      "payable": false,
      "stateMutability": "nonpayable",
      "type": "function"
    },
    {
      "constant": false,
      "inputs": [
        {
          "internalType": "uint256",
          "name": "_orderID",
          "type": "uint256"
        }
      ],
      "name": "Distribuir",
      "outputs": [],
      "payable": false,
      "stateMutability": "nonpayable",
      "type": "function"
    },
    {
      "constant": false,
      "inputs": [
        {
          "internalType": "uint256",
          "name": "_orderID",
          "type": "uint256"
        }
      ],
      "name": "Mayoreo",
      "outputs": [],
      "payable": false,
      "stateMutability": "nonpayable",
      "type": "function"
    },
    {
      "constant": false,
      "inputs": [
        {
          "internalType": "uint256",
          "name": "_orderID",
          "type": "uint256"
        }
      ],
      "name": "sold",
      "outputs": [],
      "payable": false,
      "stateMutability": "nonpayable",
      "type": "function"
    },
    {
      "constant": false,
      "inputs": [
        {
          "internalType": "string",
          "name": "_name",
          "type": "string"
        },
        {
          "internalType": "string",
          "name": "_description",
          "type": "string"
        }
      ],
      "name": "addOrder",
      "outputs": [],
      "payable": false,
      "stateMutability": "nonpayable",
      "type": "function"
    }
  ],
  "bytecode": "0x60806040526000600155600060025560006003556000600455600060055534801561002957600080fd5b50336000806101000a81548173ffffffffffffffffffffffffffffffffffffffff021916908373ffffffffffffffffffffffffffffffffffffffff160217905550612af5806100796000396000f3fe608060405234801561001057600080fd5b50600436106101425760003560e01c8063716f290a116100b8578063a44571691161007c578063a445716914610c76578063b4a99a4e14610de8578063bbaeb1d414610e32578063cf325fd014610f7f578063db0cc53214610fad578063e144647d1461111f57610142565b8063716f290a14610b275780637b7fd0db14610b5557806392cf76af14610b735780639c03facb14610ba15780639c71150814610bcf57610142565b80632bdb2e6b1161010a5780632bdb2e6b146106be57806341976611146106dc578063544ad03d146106fa57806358abdb951461084c5780636b7b0a97146109975780637133f25e14610b0957610142565b806310f33daa146101475780631678d94f1461016557806319c36cda146102b25780632ad0eaf4146104245780632b0187ac14610571575b600080fd5b61014f61114d565b6040518082815260200191505060405180910390f35b6101916004803603602081101561017b57600080fd5b8101908080359060200190929190505050611153565b604051808573ffffffffffffffffffffffffffffffffffffffff1673ffffffffffffffffffffffffffffffffffffffff1681526020018481526020018060200180602001838103835285818151815260200191508051906020019080838360005b8381101561020d5780820151818401526020810190506101f2565b50505050905090810190601f16801561023a5780820380516001836020036101000a031916815260200191505b50838103825284818151815260200191508051906020019080838360005b83811015610273578082015181840152602081019050610258565b50505050905090810190601f1680156102a05780820380516001836020036101000a031916815260200191505b50965050505050505060405180910390f35b610422600480360360608110156102c857600080fd5b81019080803573ffffffffffffffffffffffffffffffffffffffff1690602001909291908035906020019064010000000081111561030557600080fd5b82018360208201111561031757600080fd5b8035906020019184600183028401116401000000008311171561033957600080fd5b91908080601f016020809104026020016040519081016040528093929190818152602001838380828437600081840152601f19601f8201169050808301925050505050505091929192908035906020019064010000000081111561039c57600080fd5b8201836020820111156103ae57600080fd5b803590602001918460018302840111640100000000831117156103d057600080fd5b91908080601f016020809104026020016040519081016040528093929190818152602001838380828437600081840152601f19601f8201169050808301925050505050505091929192905050506112d3565b005b6104506004803603602081101561043a57600080fd5b810190808035906020019092919050505061141f565b604051808573ffffffffffffffffffffffffffffffffffffffff1673ffffffffffffffffffffffffffffffffffffffff1681526020018481526020018060200180602001838103835285818151815260200191508051906020019080838360005b838110156104cc5780820151818401526020810190506104b1565b50505050905090810190601f1680156104f95780820380516001836020036101000a031916815260200191505b50838103825284818151815260200191508051906020019080838360005b83811015610532578082015181840152602081019050610517565b50505050905090810190601f16801561055f5780820380516001836020036101000a031916815260200191505b50965050505050505060405180910390f35b61059d6004803603602081101561058757600080fd5b810190808035906020019092919050505061159f565b604051808573ffffffffffffffffffffffffffffffffffffffff1673ffffffffffffffffffffffffffffffffffffffff1681526020018481526020018060200180602001838103835285818151815260200191508051906020019080838360005b838110156106195780820151818401526020810190506105fe565b50505050905090810190601f1680156106465780820380516001836020036101000a031916815260200191505b50838103825284818151815260200191508051906020019080838360005b8381101561067f578082015181840152602081019050610664565b50505050905090810190601f1680156106ac5780820380516001836020036101000a031916815260200191505b50965050505050505060405180910390f35b6106c661171f565b6040518082815260200191505060405180910390f35b6106e4611725565b6040518082815260200191505060405180910390f35b61084a6004803603604081101561071057600080fd5b810190808035906020019064010000000081111561072d57600080fd5b82018360208201111561073f57600080fd5b8035906020019184600183028401116401000000008311171561076157600080fd5b91908080601f016020809104026020016040519081016040528093929190818152602001838380828437600081840152601f19601f820116905080830192505050505050509192919290803590602001906401000000008111156107c457600080fd5b8201836020820111156107d657600080fd5b803590602001918460018302840111640100000000831117156107f857600080fd5b91908080601f016020809104026020016040519081016040528093929190818152602001838380828437600081840152601f19601f82011690508083019250505050505050919291929050505061172b565b005b6108786004803603602081101561086257600080fd5b81019080803590602001909291905050506118cc565b6040518089815260200180602001806020018881526020018781526020018681526020018581526020018460058111156108ae57fe5b60ff16815260200183810383528a818151815260200191508051906020019080838360005b838110156108ee5780820151818401526020810190506108d3565b50505050905090810190601f16801561091b5780820380516001836020036101000a031916815260200191505b50838103825289818151815260200191508051906020019080838360005b83811015610954578082015181840152602081019050610939565b50505050905090810190601f1680156109815780820380516001836020036101000a031916815260200191505b509a505050505050505050505060405180910390f35b610b07600480360360608110156109ad57600080fd5b81019080803573ffffffffffffffffffffffffffffffffffffffff169060200190929190803590602001906401000000008111156109ea57600080fd5b8201836020820111156109fc57600080fd5b80359060200191846001830284011164010000000083111715610a1e57600080fd5b91908080601f016020809104026020016040519081016040528093929190818152602001838380828437600081840152601f19601f82011690508083019250505050505050919291929080359060200190640100000000811115610a8157600080fd5b820183602082011115610a9357600080fd5b80359060200191846001830284011164010000000083111715610ab557600080fd5b91908080601f016020809104026020016040519081016040528093929190818152602001838380828437600081840152601f19601f820116905080830192505050505050509192919290505050611a51565b005b610b11611b9d565b6040518082815260200191505060405180910390f35b610b5360048036036020811015610b3d57600080fd5b8101908080359060200190929190505050611ba3565b005b610b5d611c75565b6040518082815260200191505060405180910390f35b610b9f60048036036020811015610b8957600080fd5b8101908080359060200190929190505050611c7b565b005b610bcd60048036036020811015610bb757600080fd5b8101908080359060200190929190505050611d4d565b005b610bfb60048036036020811015610be557600080fd5b8101908080359060200190929190505050611e26565b6040518080602001828103825283818151815260200191508051906020019080838360005b83811015610c3b578082015181840152602081019050610c20565b50505050905090810190601f168015610c685780820380516001836020036101000a031916815260200191505b509250505060405180910390f35b610de660048036036060811015610c8c57600080fd5b81019080803573ffffffffffffffffffffffffffffffffffffffff16906020019092919080359060200190640100000000811115610cc957600080fd5b820183602082011115610cdb57600080fd5b80359060200191846001830284011164010000000083111715610cfd57600080fd5b91908080601f016020809104026020016040519081016040528093929190818152602001838380828437600081840152601f19601f82011690508083019250505050505050919291929080359060200190640100000000811115610d6057600080fd5b820183602082011115610d7257600080fd5b80359060200191846001830284011164010000000083111715610d9457600080fd5b91908080601f016020809104026020016040519081016040528093929190818152602001838380828437600081840152601f19601f820116905080830192505050505050509192919290505050612136565b005b610df0612282565b604051808273ffffffffffffffffffffffffffffffffffffffff1673ffffffffffffffffffffffffffffffffffffffff16815260200191505060405180910390f35b610e5e60048036036020811015610e4857600080fd5b81019080803590602001909291905050506122a7565b604051808573ffffffffffffffffffffffffffffffffffffffff1673ffffffffffffffffffffffffffffffffffffffff1681526020018481526020018060200180602001838103835285818151815260200191508051906020019080838360005b83811015610eda578082015181840152602081019050610ebf565b50505050905090810190601f168015610f075780820380516001836020036101000a031916815260200191505b50838103825284818151815260200191508051906020019080838360005b83811015610f40578082015181840152602081019050610f25565b50505050905090810190601f168015610f6d5780820380516001836020036101000a031916815260200191505b50965050505050505060405180910390f35b610fab60048036036020811015610f9557600080fd5b8101908080359060200190929190505050612427565b005b61111d60048036036060811015610fc357600080fd5b81019080803573ffffffffffffffffffffffffffffffffffffffff1690602001909291908035906020019064010000000081111561100057600080fd5b82018360208201111561101257600080fd5b8035906020019184600183028401116401000000008311171561103457600080fd5b91908080601f016020809104026020016040519081016040528093929190818152602001838380828437600081840152601f19601f8201169050808301925050505050505091929192908035906020019064010000000081111561109757600080fd5b8201836020820111156110a957600080fd5b803590602001918460018302840111640100000000831117156110cb57600080fd5b91908080601f016020809104026020016040519081016040528093929190818152602001838380828437600081840152601f19601f8201169050808301925050505050505091929192905050506124f9565b005b61114b6004803603602081101561113557600080fd5b8101908080359060200190929190505050612645565b005b60035481565b60086020528060005260406000206000915090508060000160009054906101000a900473ffffffffffffffffffffffffffffffffffffffff1690806001015490806002018054600181600116156101000203166002900480601f01602080910402602001604051908101604052809291908181526020018280546001816001161561010002031660029004801561122b5780601f106112005761010080835404028352916020019161122b565b820191906000526020600020905b81548152906001019060200180831161120e57829003601f168201915b505050505090806003018054600181600116156101000203166002900480601f0160208091040260200160405190810160405280929190818152602001828054600181600116156101000203166002900480156112c95780601f1061129e576101008083540402835291602001916112c9565b820191906000526020600020905b8154815290600101906020018083116112ac57829003601f168201915b5050505050905084565b6000809054906101000a900473ffffffffffffffffffffffffffffffffffffffff1673ffffffffffffffffffffffffffffffffffffffff163373ffffffffffffffffffffffffffffffffffffffff161461132c57600080fd5b60046000815480929190600101919050555060405180608001604052808473ffffffffffffffffffffffffffffffffffffffff16815260200160045481526020018381526020018281525060096000600454815260200190815260200160002060008201518160000160006101000a81548173ffffffffffffffffffffffffffffffffffffffff021916908373ffffffffffffffffffffffffffffffffffffffff1602179055506020820151816001015560408201518160020190805190602001906113f9929190612a1b565b506060820151816003019080519060200190611416929190612a1b565b50905050505050565b60076020528060005260406000206000915090508060000160009054906101000a900473ffffffffffffffffffffffffffffffffffffffff1690806001015490806002018054600181600116156101000203166002900480601f0160208091040260200160405190810160405280929190818152602001828054600181600116156101000203166002900480156114f75780601f106114cc576101008083540402835291602001916114f7565b820191906000526020600020905b8154815290600101906020018083116114da57829003601f168201915b505050505090806003018054600181600116156101000203166002900480601f0160208091040260200160405190810160405280929190818152602001828054600181600116156101000203166002900480156115955780601f1061156a57610100808354040283529160200191611595565b820191906000526020600020905b81548152906001019060200180831161157857829003601f168201915b5050505050905084565b60096020528060005260406000206000915090508060000160009054906101000a900473ffffffffffffffffffffffffffffffffffffffff1690806001015490806002018054600181600116156101000203166002900480601f0160208091040260200160405190810160405280929190818152602001828054600181600116156101000203166002900480156116775780601f1061164c57610100808354040283529160200191611677565b820191906000526020600020905b81548152906001019060200180831161165a57829003601f168201915b505050505090806003018054600181600116156101000203166002900480601f0160208091040260200160405190810160405280929190818152602001828054600181600116156101000203166002900480156117155780601f106116ea57610100808354040283529160200191611715565b820191906000526020600020905b8154815290600101906020018083116116f857829003601f168201915b5050505050905084565b60045481565b60025481565b6000809054906101000a900473ffffffffffffffffffffffffffffffffffffffff1673ffffffffffffffffffffffffffffffffffffffff163373ffffffffffffffffffffffffffffffffffffffff161461178457600080fd5b600060025411801561179857506000600354115b80156117a657506000600454115b80156117b457506000600554115b6117bd57600080fd5b6001600081548092919060010191905055506040518061010001604052806001548152602001838152602001828152602001600081526020016000815260200160008152602001600081526020016000600581111561181857fe5b815250600660006001548152602001908152602001600020600082015181600001556020820151816001019080519060200190611856929190612a1b565b506040820151816002019080519060200190611873929190612a1b565b50606082015181600301556080820151816004015560a0820151816005015560c0820151816006015560e08201518160070160006101000a81548160ff021916908360058111156118c057fe5b02179055509050505050565b6006602052806000526040600020600091509050806000015490806001018054600181600116156101000203166002900480601f01602080910402602001604051908101604052809291908181526020018280546001816001161561010002031660029004801561197e5780601f106119535761010080835404028352916020019161197e565b820191906000526020600020905b81548152906001019060200180831161196157829003601f168201915b505050505090806002018054600181600116156101000203166002900480601f016020809104026020016040519081016040528092919081815260200182805460018160011615610100020316600290048015611a1c5780601f106119f157610100808354040283529160200191611a1c565b820191906000526020600020905b8154815290600101906020018083116119ff57829003601f168201915b5050505050908060030154908060040154908060050154908060060154908060070160009054906101000a900460ff16905088565b6000809054906101000a900473ffffffffffffffffffffffffffffffffffffffff1673ffffffffffffffffffffffffffffffffffffffff163373ffffffffffffffffffffffffffffffffffffffff1614611aaa57600080fd5b60026000815480929190600101919050555060405180608001604052808473ffffffffffffffffffffffffffffffffffffffff16815260200160025481526020018381526020018281525060076000600254815260200190815260200160002060008201518160000160006101000a81548173ffffffffffffffffffffffffffffffffffffffff021916908373ffffffffffffffffffffffffffffffffffffffff160217905550602082015181600101556040820151816002019080519060200190611b77929190612a1b565b506060820151816003019080519060200190611b94929190612a1b565b50905050505050565b60055481565b600081118015611bb557506001548111155b611bbe57600080fd5b6000611bc933612717565b905060008111611bd857600080fd5b60036005811115611be557fe5b6006600084815260200190815260200160002060070160009054906101000a900460ff166005811115611c1457fe5b14611c1e57600080fd5b80600660008481526020019081526020016000206006018190555060046006600084815260200190815260200160002060070160006101000a81548160ff02191690836005811115611c6c57fe5b02179055505050565b60015481565b600081118015611c8d57506001548111155b611c9657600080fd5b6000611ca1336127d8565b905060008111611cb057600080fd5b60026005811115611cbd57fe5b6006600084815260200190815260200160002060070160009054906101000a900460ff166005811115611cec57fe5b14611cf657600080fd5b80600660008481526020019081526020016000206005018190555060036006600084815260200190815260200160002060070160006101000a81548160ff02191690836005811115611d4457fe5b02179055505050565b600081118015611d5f57506001548111155b611d6857600080fd5b6000611d7333612717565b905060008111611d8257600080fd5b60066000838152602001908152602001600020600601548114611da457600080fd5b60046005811115611db157fe5b6006600084815260200190815260200160002060070160009054906101000a900460ff166005811115611de057fe5b14611dea57600080fd5b60056006600084815260200190815260200160002060070160006101000a81548160ff02191690836005811115611e1d57fe5b02179055505050565b6060600060015411611e3757600080fd5b60006005811115611e4457fe5b6006600084815260200190815260200160002060070160009054906101000a900460ff166005811115611e7357fe5b1415611eb6576040518060400160405280600d81526020017f4f7264656e20656e20636f6c61000000000000000000000000000000000000008152509050612131565b60016005811115611ec357fe5b6006600084815260200190815260200160002060070160009054906101000a900460ff166005811115611ef257fe5b1415611f35576040518060400160405280601381526020017f4f7264656e20656e2070726f64756363696f6e000000000000000000000000008152509050612131565b60026005811115611f4257fe5b6006600084815260200190815260200160002060070160009054906101000a900460ff166005811115611f7157fe5b1415611fb4576040518060400160405280600f81526020017f4f7264656e2070726f63657361646100000000000000000000000000000000008152509050612131565b60036005811115611fc157fe5b6006600084815260200190815260200160002060070160009054906101000a900460ff166005811115611ff057fe5b1415612033576040518060400160405280601181526020017f4f7264656e2064697374726962756964610000000000000000000000000000008152509050612131565b6004600581111561204057fe5b6006600084815260200190815260200160002060070160009054906101000a900460ff16600581111561206f57fe5b14156120b2576040518060400160405280601081526020017f4f7264656e2061206c612076656e7461000000000000000000000000000000008152509050612131565b6005808111156120be57fe5b6006600084815260200190815260200160002060070160009054906101000a900460ff1660058111156120ed57fe5b1415612130576040518060400160405280600d81526020017f4f7264656e2076656e64696461000000000000000000000000000000000000008152509050612131565b5b919050565b6000809054906101000a900473ffffffffffffffffffffffffffffffffffffffff1673ffffffffffffffffffffffffffffffffffffffff163373ffffffffffffffffffffffffffffffffffffffff161461218f57600080fd5b60056000815480929190600101919050555060405180608001604052808473ffffffffffffffffffffffffffffffffffffffff168152602001600554815260200183815260200182815250600a6000600554815260200190815260200160002060008201518160000160006101000a81548173ffffffffffffffffffffffffffffffffffffffff021916908373ffffffffffffffffffffffffffffffffffffffff16021790555060208201518160010155604082015181600201908051906020019061225c929190612a1b565b506060820151816003019080519060200190612279929190612a1b565b50905050505050565b6000809054906101000a900473ffffffffffffffffffffffffffffffffffffffff1681565b600a6020528060005260406000206000915090508060000160009054906101000a900473ffffffffffffffffffffffffffffffffffffffff1690806001015490806002018054600181600116156101000203166002900480601f01602080910402602001604051908101604052809291908181526020018280546001816001161561010002031660029004801561237f5780601f106123545761010080835404028352916020019161237f565b820191906000526020600020905b81548152906001019060200180831161236257829003601f168201915b505050505090806003018054600181600116156101000203166002900480601f01602080910402602001604051908101604052809291908181526020018280546001816001161561010002031660029004801561241d5780601f106123f25761010080835404028352916020019161241d565b820191906000526020600020905b81548152906001019060200180831161240057829003601f168201915b5050505050905084565b60008111801561243957506001548111155b61244257600080fd5b600061244d33612899565b90506000811161245c57600080fd5b6001600581111561246957fe5b6006600084815260200190815260200160002060070160009054906101000a900460ff16600581111561249857fe5b146124a257600080fd5b80600660008481526020019081526020016000206004018190555060026006600084815260200190815260200160002060070160006101000a81548160ff021916908360058111156124f057fe5b02179055505050565b6000809054906101000a900473ffffffffffffffffffffffffffffffffffffffff1673ffffffffffffffffffffffffffffffffffffffff163373ffffffffffffffffffffffffffffffffffffffff161461255257600080fd5b60036000815480929190600101919050555060405180608001604052808473ffffffffffffffffffffffffffffffffffffffff16815260200160035481526020018381526020018281525060086000600354815260200190815260200160002060008201518160000160006101000a81548173ffffffffffffffffffffffffffffffffffffffff021916908373ffffffffffffffffffffffffffffffffffffffff16021790555060208201518160010155604082015181600201908051906020019061261f929190612a1b565b50606082015181600301908051906020019061263c929190612a1b565b50905050505050565b60008111801561265757506001548111155b61266057600080fd5b600061266b3361295a565b90506000811161267a57600080fd5b6000600581111561268757fe5b6006600084815260200190815260200160002060070160009054906101000a900460ff1660058111156126b657fe5b146126c057600080fd5b80600660008481526020019081526020016000206003018190555060016006600084815260200190815260200160002060070160006101000a81548160ff0219169083600581111561270e57fe5b02179055505050565b6000806005541161272757600080fd5b6000600190505b60055481116127cd578273ffffffffffffffffffffffffffffffffffffffff16600a600083815260200190815260200160002060000160009054906101000a900473ffffffffffffffffffffffffffffffffffffffff1673ffffffffffffffffffffffffffffffffffffffff1614156127c057600a6000828152602001908152602001600020600101549150506127d3565b808060010191505061272e565b50600090505b919050565b600080600454116127e857600080fd5b6000600190505b600454811161288e578273ffffffffffffffffffffffffffffffffffffffff166009600083815260200190815260200160002060000160009054906101000a900473ffffffffffffffffffffffffffffffffffffffff1673ffffffffffffffffffffffffffffffffffffffff161415612881576009600082815260200190815260200160002060010154915050612894565b80806001019150506127ef565b50600090505b919050565b600080600354116128a957600080fd5b6000600190505b600354811161294f578273ffffffffffffffffffffffffffffffffffffffff166008600083815260200190815260200160002060000160009054906101000a900473ffffffffffffffffffffffffffffffffffffffff1673ffffffffffffffffffffffffffffffffffffffff161415612942576008600082815260200190815260200160002060010154915050612955565b80806001019150506128b0565b50600090505b919050565b6000806002541161296a57600080fd5b6000600190505b6002548111612a10578273ffffffffffffffffffffffffffffffffffffffff166007600083815260200190815260200160002060000160009054906101000a900473ffffffffffffffffffffffffffffffffffffffff1673ffffffffffffffffffffffffffffffffffffffff161415612a03576007600082815260200190815260200160002060010154915050612a16565b8080600101915050612971565b50600090505b919050565b828054600181600116156101000203166002900490600052602060002090601f016020900481019282601f10612a5c57805160ff1916838001178555612a8a565b82800160010185558215612a8a579182015b82811115612a89578251825591602001919060010190612a6e565b5b509050612a979190612a9b565b5090565b612abd91905b80821115612ab9576000816000905550600101612aa1565b5090565b9056fea265627a7a723158203639a4ea2c5124e66f5be77e4cfd330f7ddbc71d9cb916c811b73632771e7a5b64736f6c63430005100032",
  "source": "// SPDX-License-Identifier: MIT\npragma solidity >=0.4.22 <0.9.0;\n\ncontract SupplyChain {\n    address public Owner;\n\n    constructor() public {\n        Owner = msg.sender;\n    }\n\n    modifier onlyByOwner() {\n        require(msg.sender == Owner);\n        _;\n    }\n\n    enum STAGE {Init, Productor, Procesador, Distribuidor, Mayorista, sold}\n\n    uint256 public pedidosCtr = 0;\n    uint256 public prodCtr = 0;\n    uint256 public procCtr = 0;\n    uint256 public disCtr = 0;\n    uint256 public mayCtr = 0;\n\n    struct pedido {uint256 id; string name; string description; uint256 PRODid; uint256 PROCid; uint256 DISid; uint256 MAYid; STAGE stage; }\n\n    mapping(uint256 => pedido) public Inventario;\n\n    function mostrarEtapa(uint256 _orderID)\n        public\n        view\n        returns (string memory)\n    {\n        require(pedidosCtr > 0);\n        if (Inventario[_orderID].stage == STAGE.Init)\n            return \"Orden en cola\";\n        else if (Inventario[_orderID].stage == STAGE.Productor)\n            return \"Orden en produccion\";\n        else if (Inventario[_orderID].stage == STAGE.Procesador)\n            return \"Orden procesada\";\n        else if (Inventario[_orderID].stage == STAGE.Distribuidor)\n            return \"Orden distribuida\";\n        else if (Inventario[_orderID].stage == STAGE.Mayorista)\n            return \"Orden a la venta\";\n        else if (Inventario[_orderID].stage == STAGE.sold)\n            return \"Orden vendida\";\n    }\n\n    struct productor {address addr;uint256 id;string name;string place;}\n\n    mapping(uint256 => productor) public PROD;\n\n    struct procesador {address addr;uint256 id; string name; string place; }\n\n    mapping(uint256 => procesador) public PROC;\n\n    struct distribuidor {address addr;uint256 id; string name; string place; }\n\n    mapping(uint256 => distribuidor) public DIS;\n\n    struct mayorista {address addr;uint256 id; string name; string place; }\n\n    mapping(uint256 => mayorista) public MAY;\n\n    function addPROD(\n        address _address,\n        string memory _name,\n        string memory _place\n    ) public onlyByOwner() {\n        prodCtr++;\n        PROD[prodCtr] = productor(_address, prodCtr, _name, _place);\n    }\n\n    function addProcesador(\n        address _address,\n        string memory _name,\n        string memory _place\n    ) public onlyByOwner() {\n        procCtr++;\n        PROC[procCtr] = procesador(_address, procCtr, _name, _place);\n    }\n\n    function addDistribuidor(\n        address _address,\n        string memory _name,\n        string memory _place\n    ) public onlyByOwner() {\n        disCtr++;\n        DIS[disCtr] = distribuidor(_address, disCtr, _name, _place);\n    }\n\n    function addMayorista(\n        address _address,\n        string memory _name,\n        string memory _place\n    ) public onlyByOwner() {\n        mayCtr++;\n        MAY[mayCtr] = mayorista(_address, mayCtr, _name, _place);\n    }\n\n    function PRODsupply(uint256 _orderID) public {\n        require(_orderID > 0 && _orderID <= pedidosCtr);\n        uint256 _id = findPROD(msg.sender);\n        require(_id > 0);\n        require(Inventario[_orderID].stage == STAGE.Init);\n        Inventario[_orderID].PRODid = _id;\n        Inventario[_orderID].stage = STAGE.Productor;\n    }\n\n    function findPROD(address _address) private view returns (uint256) {\n        require(prodCtr > 0);\n        for (uint256 i = 1; i <= prodCtr; i++) {\n            if (PROD[i].addr == _address) return PROD[i].id;\n        }\n        return 0;\n    }\n\n    function Procesando(uint256 _orderID) public {\n        require(_orderID > 0 && _orderID <= pedidosCtr);\n        uint256 _id = findPROC(msg.sender);\n        require(_id > 0);\n        require(Inventario[_orderID].stage == STAGE.Productor);\n        Inventario[_orderID].PROCid = _id;\n        Inventario[_orderID].stage = STAGE.Procesador;\n    }\n\n    function findPROC(address _address) private view returns (uint256) {\n        require(procCtr > 0);\n        for (uint256 i = 1; i <= procCtr; i++) {\n            if (PROC[i].addr == _address) return PROC[i].id;\n        }\n        return 0;\n    }\n\n    function Distribuir(uint256 _orderID) public {\n        require(_orderID > 0 && _orderID <= pedidosCtr);\n        uint256 _id = findDIS(msg.sender);\n        require(_id > 0);\n        require(Inventario[_orderID].stage == STAGE.Procesador);\n        Inventario[_orderID].DISid = _id;\n        Inventario[_orderID].stage = STAGE.Distribuidor;\n    }\n\n    function findDIS(address _address) private view returns (uint256) {\n        require(disCtr > 0);\n        for (uint256 i = 1; i <= disCtr; i++) {\n            if (DIS[i].addr == _address) return DIS[i].id;\n        }\n        return 0;\n    }\n\n    function Mayoreo(uint256 _orderID) public {\n        require(_orderID > 0 && _orderID <= pedidosCtr);\n        uint256 _id = findMAY(msg.sender);\n        require(_id > 0);\n        require(Inventario[_orderID].stage == STAGE.Distribuidor);\n        Inventario[_orderID].MAYid = _id;\n        Inventario[_orderID].stage = STAGE.Mayorista;\n    }\n\n    function findMAY(address _address) private view returns (uint256) {\n        require(mayCtr > 0);\n        for (uint256 i = 1; i <= mayCtr; i++) {\n            if (MAY[i].addr == _address) return MAY[i].id;\n        }\n        return 0;\n    }\n\n    function sold(uint256 _orderID) public {\n        require(_orderID > 0 && _orderID <= pedidosCtr);\n        uint256 _id = findMAY(msg.sender);\n        require(_id > 0);\n        require(_id == Inventario[_orderID].MAYid);\n        require(Inventario[_orderID].stage == STAGE.Mayorista);\n        Inventario[_orderID].stage = STAGE.sold;\n    }\n\n    function addOrder(string memory _name, string memory _description)\n        public\n        onlyByOwner()\n    {\n        require((prodCtr > 0) && (procCtr > 0) && (disCtr > 0) && (mayCtr > 0));\n        pedidosCtr++;\n        Inventario[pedidosCtr] = pedido(\n            pedidosCtr,\n            _name,\n            _description,\n            0,\n            0,\n            0,\n            0,\n            STAGE.Init\n        );\n    }\n}",
  "sourcePath": "C:\\Users\\JaimePanchana\\Desktop\\Jean\\2go\\python\\1FL\\trackTrace\\v4\\Pitahaya-Supply-Chain\\contracts\\SupplyChain.sol",
  "compiler": {
    "name": "solc",
    "version": "0.5.16+commit.9c3226ce.Emscripten.clang"
  },
  "schemaVersion": "3.4.10",
  "updatedAt": "2023-10-13T00:45:24.203Z",
  "networkType": "ethereum",
  "devdoc": {
    "methods": {}
  },
  "userdoc": {
    "methods": {}
  }
}